:0400000046EF00F0D7
:100008002C82FACF05F0FBCF06F0E9CF07F0EACF54
:1000180008F0E1CF09F0E2CF0AF0D9CF0BF0DACF40
:100028000CF0F3CF0DF0F4CF0EF0F6CF0FF0F7CFC2
:1000380010F0F8CF11F0F5CF12F00E01C2A904D0DC
:100048000E01CAB950EC03F012C0F5FF11C0F8FF59
:1000580010C0F7FF0FC0F6FF0EC0F4FF0DC0F3FF8E
:100068000CC0DAFF0BC0D9FF0AC0E2FF09C0E1FFEC
:1000780008C0EAFF07C0E9FF06C0FBFF05C0FAFF9A
:100088002C9211003EEF03F0186E1750800B196E7A
:100098001750400B1A6E1750200B1B6E1750100B81
:1000A8001C6E1750080B1D6E1750040B1E6E175050
:1000B800020B1F6E1750010B206E1850D8B448D091
:1000C800800E1918D8A403D02AEC03F002D034EC1F
:1000D80003F0400E1A18D8A403D02AEC03F002D07B
:1000E80034EC03F0200E1B18D8A403D02AEC03F03C
:1000F80002D034EC03F0100E1C18D8A403D02AEC5C
:1001080003F002D034EC03F0080E1D18D8A403D075
:100118002AEC03F002D034EC03F0040E1E18D8A425
:1001280003D02AEC03F002D034EC03F0020E1F18BF
:10013800D8A403D02AEC03F002D034EC03F0200456
:10014800D8A403D02AEC03F005D034EC03F002D095
:100158008CEC02F01550D8B448D0800E1918D8A4E9
:1001680003D02AEC03F002D034EC03F0400E1A1846
:10017800D8A403D02AEC03F002D034EC03F0200E0C
:100188001B18D8A403D02AEC03F002D034EC03F0F7
:10019800100E1C18D8A403D02AEC03F002D034ECBB
:1001A80003F0080E1D18D8A403D02AEC03F002D0DF
:1001B80034EC03F0040E1E18D8A403D02AEC03F084
:1001C80002D034EC03F0020E1F18D8A403D02AEC96
:1001D80003F002D034EC03F02004D8A403D02AECB6
:1001E80003F005D034EC03F002D08CEC02F016508A
:1001F800D8B448D0800E1918D8A403D02AEC03F03C
:1002080002D034EC03F0400E1A18D8A403D02AEC1C
:1002180003F002D034EC03F0200E1B18D8A403D04E
:100228002AEC03F002D034EC03F0100E1C18D8A40A
:1002380003D02AEC03F002D034EC03F0080E1D18AA
:10024800D8A403D02AEC03F002D034EC03F0040E57
:100258001E18D8A403D02AEC03F002D034EC03F023
:10026800020E1F18D8A403D02AEC03F002D034ECF5
:1002780003F02004D8A403D02AEC03F0120034ECD5
:1002880003F012008CEC02F01200030E146EFE0E46
:10029800136EC7EC02F02B6E000E836E000E846E98
:1002A800000E856E88688968FE0E8A6E0F012169C6
:1002B800EE0E0F01196F0F011169000E0F012D6F5E
:1002C800010E0F01186F000E0F01106F000E0F01C5
:1002D800206F000E0F010F6F000E0F01176F000E39
:1002E8000F011F6F090E166E1E0E156EE40EE82E16
:1002F800FED7152EFCD7162EFAD700D00F01128183
:100308000F0113810F011491BA0E136E060E146EAD
:1003180056EC03F00E01C289000EF2BE010E176EF4
:10032800F29E550E0E01A06FAA0E0E01A06F0E01CF
:10033800A0910E01AE91AE93AE85AE87AE99550EE3
:100348000E01A06FAA0E0E01A06F0E01A08117A0CA
:1003580002D0F28E01D0F29EF28E120047EC03F02A
:10036800000E266E000E256E000E286E000E246EFE
:10037800000E0F015FB1010EA5EC02F013C025F0CD
:1003880014C026F025C022F026C023F0D8902332CE
:100398002232D890233222322250286E000E276E45
:1003A8003B0E276401D035D02B50D8A403D020ECC5
:1003B80003F02DD0020E2B6004D0285015EC03F06A
:1003C80026D0030E2B6004D02850E9EC02F01FD091
:1003D800040E2B6004D02850F4EC02F018D0050E5F
:1003E8002B6004D02850FFEC02F011D0060E2B60D1
:1003F80004D028500AEC03F00AD0070E2B6004D072
:100408002850D3EC02F003D02850DEEC02F0272A63
:10041800C7D7150E236E4B0E226EBE0EE82EFED7E2
:10042800222EFCD7232EFAD700D0A2D7000E0F0118
:10043800596F000E0F015A6F000E0F015B6F000E0F
:100448000F01566F000E656E3F0E0F01576F000EBD
:100458000F01586F000E0F015D6F000E0F015E6FE8
:10046800000E0F015C6F000E0F015F6F000E666ECD
:10047800000E6A6E000E6B6E000E6C6E000E6D6ED6
:10048800000E686E000E696E840E606E12000E011A
:10049800C29929502A10D8B419D001D80AD0050019
:1004A800FA6E2950FD6E2A50FE6EF850FF6EFA5013
:1004B80012008EB00BD02B2A070E2B16030E026EDD
:1004C800FE0E016E2BC003F06FEC02F00F011291CB
:1004D8000E01C2891200000EF2BE010E046E025017
:1004E800030B7F6E01C07EFF03C080FF3F0E8116A5
:1004F8008184F29E550E826EAA0E826E818281B22E
:10050800FED7819404B002D0F29E01D0F28E120080
:10051800000E146E000E136E14BE06D0145010E1B7
:10052800080E135CD8B012008F8000D000D000F005
:100538008F90040EE82EFED700D0134A142AECD769
:100548001200176E17C05FFF608E609C608060B0FD
:10055800FED76450166E156A63501524136E000E8C
:100568001620146E1200600E0E01D86F000E0E01D8
:10057800DA6F000E0E01DC6F080E0E01DE6F000E42
:100588000E01DD6F12001450030B7F6E13C07EFF47
:100598003F0E8116818000F000F080501200216E1D
:1005A800010E156E000E166E21C017F0010E48ECF4
:1005B80000F01200216E010E156E010E166E21C09C
:1005C80017F0010E48EC00F01200216E010E156EB6
:1005D800000E166E21C017F0000E48EC00F0120055
:1005E800216E010E156E010E166E21C017F0000E59
:1005F80048EC00F01200216E000E156E000E166E0B
:1006080021C017F0010E48EC00F01200216E000E18
:10061800156E010E166E21C017F0010E48EC00F0A1
:100628001200216E000E156E010E166E21C017F015
:10063800000E48EC00F01200000E156E000E166E4B
:10064800000E176E000E48EC00F012008F80040EAA
:10065800E82EFED700D08F9000D000D000F0120016
:100668008F8000D000D000F08F90040EE82EFED7C7
:1006780000D012002A6A296A2C902C92000EF86E7B
:100688000001B2EF01F05BEC03F049EC01F0B7ECCC
:1006980002F01AEC02F012000F0112A112004BEC4A
:1006A80002F0120013C029F014C02AF01200F29AC6
:0406B800120012001A
:020000040020DA
:10000000FF0FFF0FFF0FFF0FFF0FFF0FFF0FFF0F80
:020000040030CA
:0C0000008CFFFFFF9FFFFFDFFFFFFFFFF3
:00000001FF
